{
    "_format": "hh-sol-artifact-1",
    "contractName": "MusicNFT",
    "sourceName": "contracts/MusicNFT.sol",
    "abi": [
        {
            "inputs": [
                {
                    "internalType": "string",
                    "name": "eventName",
                    "type": "string"
                }
            ],
            "stateMutability": "nonpayable",
            "type": "constructor"
        },
        {
            "anonymous": false,
            "inputs": [
                {
                    "indexed": true,
                    "internalType": "address",
                    "name": "owner",
                    "type": "address"
                },
                {
                    "indexed": true,
                    "internalType": "address",
                    "name": "approved",
                    "type": "address"
                },
                {
                    "indexed": true,
                    "internalType": "uint256",
                    "name": "tokenId",
                    "type": "uint256"
                }
            ],
            "name": "Approval",
            "type": "event"
        },
        {
            "anonymous": false,
            "inputs": [
                {
                    "indexed": true,
                    "internalType": "address",
                    "name": "owner",
                    "type": "address"
                },
                {
                    "indexed": true,
                    "internalType": "address",
                    "name": "operator",
                    "type": "address"
                },
                {
                    "indexed": false,
                    "internalType": "bool",
                    "name": "approved",
                    "type": "bool"
                }
            ],
            "name": "ApprovalForAll",
            "type": "event"
        },
        {
            "anonymous": false,
            "inputs": [
                {
                    "indexed": true,
                    "internalType": "address",
                    "name": "from",
                    "type": "address"
                },
                {
                    "indexed": true,
                    "internalType": "address",
                    "name": "to",
                    "type": "address"
                },
                {
                    "indexed": true,
                    "internalType": "uint256",
                    "name": "tokenId",
                    "type": "uint256"
                }
            ],
            "name": "Transfer",
            "type": "event"
        },
        {
            "inputs": [
                {
                    "internalType": "address",
                    "name": "to",
                    "type": "address"
                },
                {
                    "internalType": "uint256",
                    "name": "tokenId",
                    "type": "uint256"
                }
            ],
            "name": "approve",
            "outputs": [],
            "stateMutability": "nonpayable",
            "type": "function"
        },
        {
            "inputs": [
                {
                    "internalType": "address",
                    "name": "owner",
                    "type": "address"
                }
            ],
            "name": "balanceOf",
            "outputs": [
                {
                    "internalType": "uint256",
                    "name": "",
                    "type": "uint256"
                }
            ],
            "stateMutability": "view",
            "type": "function"
        },
        {
            "inputs": [
                {
                    "internalType": "uint256",
                    "name": "tokenId",
                    "type": "uint256"
                }
            ],
            "name": "getApproved",
            "outputs": [
                {
                    "internalType": "address",
                    "name": "",
                    "type": "address"
                }
            ],
            "stateMutability": "view",
            "type": "function"
        },
        {
            "inputs": [],
            "name": "getEvent",
            "outputs": [
                {
                    "internalType": "string",
                    "name": "",
                    "type": "string"
                }
            ],
            "stateMutability": "view",
            "type": "function"
        },
        {
            "inputs": [
                {
                    "internalType": "address",
                    "name": "owner",
                    "type": "address"
                },
                {
                    "internalType": "address",
                    "name": "operator",
                    "type": "address"
                }
            ],
            "name": "isApprovedForAll",
            "outputs": [
                {
                    "internalType": "bool",
                    "name": "",
                    "type": "bool"
                }
            ],
            "stateMutability": "view",
            "type": "function"
        },
        {
            "inputs": [
                {
                    "internalType": "address",
                    "name": "to",
                    "type": "address"
                }
            ],
            "name": "mintTicket",
            "outputs": [],
            "stateMutability": "nonpayable",
            "type": "function"
        },
        {
            "inputs": [],
            "name": "name",
            "outputs": [
                {
                    "internalType": "string",
                    "name": "",
                    "type": "string"
                }
            ],
            "stateMutability": "view",
            "type": "function"
        },
        {
            "inputs": [
                {
                    "internalType": "uint256",
                    "name": "tokenId",
                    "type": "uint256"
                }
            ],
            "name": "ownerOf",
            "outputs": [
                {
                    "internalType": "address",
                    "name": "",
                    "type": "address"
                }
            ],
            "stateMutability": "view",
            "type": "function"
        },
        {
            "inputs": [
                {
                    "internalType": "uint256",
                    "name": "",
                    "type": "uint256"
                },
                {
                    "internalType": "uint256",
                    "name": "value",
                    "type": "uint256"
                }
            ],
            "name": "royaltyInfo",
            "outputs": [
                {
                    "internalType": "address",
                    "name": "receiver",
                    "type": "address"
                },
                {
                    "internalType": "uint256",
                    "name": "royaltyAmount",
                    "type": "uint256"
                }
            ],
            "stateMutability": "view",
            "type": "function"
        },
        {
            "inputs": [
                {
                    "internalType": "address",
                    "name": "from",
                    "type": "address"
                },
                {
                    "internalType": "address",
                    "name": "to",
                    "type": "address"
                },
                {
                    "internalType": "uint256",
                    "name": "tokenId",
                    "type": "uint256"
                }
            ],
            "name": "safeTransferFrom",
            "outputs": [],
            "stateMutability": "nonpayable",
            "type": "function"
        },
        {
            "inputs": [
                {
                    "internalType": "address",
                    "name": "from",
                    "type": "address"
                },
                {
                    "internalType": "address",
                    "name": "to",
                    "type": "address"
                },
                {
                    "internalType": "uint256",
                    "name": "tokenId",
                    "type": "uint256"
                },
                {
                    "internalType": "bytes",
                    "name": "_data",
                    "type": "bytes"
                }
            ],
            "name": "safeTransferFrom",
            "outputs": [],
            "stateMutability": "nonpayable",
            "type": "function"
        },
        {
            "inputs": [
                {
                    "internalType": "address",
                    "name": "operator",
                    "type": "address"
                },
                {
                    "internalType": "bool",
                    "name": "approved",
                    "type": "bool"
                }
            ],
            "name": "setApprovalForAll",
            "outputs": [],
            "stateMutability": "nonpayable",
            "type": "function"
        },
        {
            "inputs": [
                {
                    "internalType": "address",
                    "name": "recipient",
                    "type": "address"
                },
                {
                    "internalType": "uint256",
                    "name": "value",
                    "type": "uint256"
                }
            ],
            "name": "setRoyalties",
            "outputs": [],
            "stateMutability": "nonpayable",
            "type": "function"
        },
        {
            "inputs": [
                {
                    "internalType": "bytes4",
                    "name": "interfaceId",
                    "type": "bytes4"
                }
            ],
            "name": "supportsInterface",
            "outputs": [
                {
                    "internalType": "bool",
                    "name": "",
                    "type": "bool"
                }
            ],
            "stateMutability": "view",
            "type": "function"
        },
        {
            "inputs": [],
            "name": "symbol",
            "outputs": [
                {
                    "internalType": "string",
                    "name": "",
                    "type": "string"
                }
            ],
            "stateMutability": "view",
            "type": "function"
        },
        {
            "inputs": [
                {
                    "internalType": "uint256",
                    "name": "tokenId",
                    "type": "uint256"
                }
            ],
            "name": "tokenURI",
            "outputs": [
                {
                    "internalType": "string",
                    "name": "",
                    "type": "string"
                }
            ],
            "stateMutability": "view",
            "type": "function"
        },
        {
            "inputs": [
                {
                    "internalType": "address",
                    "name": "from",
                    "type": "address"
                },
                {
                    "internalType": "address",
                    "name": "to",
                    "type": "address"
                },
                {
                    "internalType": "uint256",
                    "name": "tokenId",
                    "type": "uint256"
                }
            ],
            "name": "transferFrom",
            "outputs": [],
            "stateMutability": "nonpayable",
            "type": "function"
        }
    ],
    "bytecode": "0x60806040523480156200001157600080fd5b506040516200373838038062003738833981810160405281019062000037919062000330565b6040518060400160405280600d81526020017f4170706f6c6c6f204d75736963000000000000000000000000000000000000008152506040518060400160405280600581526020017f414d4e46540000000000000000000000000000000000000000000000000000008152508160009080519060200190620000bb9291906200020e565b508060019080519060200190620000d49291906200020e565b5050508060099080519060200190620000ef9291906200020e565b506200013b6040518060400160405280601d81526020017f54686973206973206d79204e465420436f6e74726163742c20776f61680000008152506200014260201b62000c911760201c565b5062000566565b620001e281604051602401620001599190620003b6565b6040516020818303038152906040527f41304fac000000000000000000000000000000000000000000000000000000007bffffffffffffffffffffffffffffffffffffffffffffffffffffffff19166020820180517bffffffffffffffffffffffffffffffffffffffffffffffffffffffff8381831617835250505050620001e560201b60201c565b50565b60008151905060006a636f6e736f6c652e6c6f679050602083016000808483855afa5050505050565b8280546200021c906200048b565b90600052602060002090601f0160209004810192826200024057600085556200028c565b82601f106200025b57805160ff19168380011785556200028c565b828001600101855582156200028c579182015b828111156200028b5782518255916020019190600101906200026e565b5b5090506200029b91906200029f565b5090565b5b80821115620002ba576000816000905550600101620002a0565b5090565b6000620002d5620002cf8462000403565b620003da565b905082815260208101848484011115620002ee57600080fd5b620002fb84828562000455565b509392505050565b600082601f8301126200031557600080fd5b815162000327848260208601620002be565b91505092915050565b6000602082840312156200034357600080fd5b600082015167ffffffffffffffff8111156200035e57600080fd5b6200036c8482850162000303565b91505092915050565b6000620003828262000439565b6200038e818562000444565b9350620003a081856020860162000455565b620003ab8162000555565b840191505092915050565b60006020820190508181036000830152620003d2818462000375565b905092915050565b6000620003e6620003f9565b9050620003f48282620004c1565b919050565b6000604051905090565b600067ffffffffffffffff82111562000421576200042062000526565b5b6200042c8262000555565b9050602081019050919050565b600081519050919050565b600082825260208201905092915050565b60005b838110156200047557808201518184015260208101905062000458565b8381111562000485576000848401525b50505050565b60006002820490506001821680620004a457607f821691505b60208210811415620004bb57620004ba620004f7565b5b50919050565b620004cc8262000555565b810181811067ffffffffffffffff82111715620004ee57620004ed62000526565b5b80604052505050565b7f4e487b7100000000000000000000000000000000000000000000000000000000600052602260045260246000fd5b7f4e487b7100000000000000000000000000000000000000000000000000000000600052604160045260246000fd5b6000601f19601f8301169050919050565b6131c280620005766000396000f3fe608060405234801561001057600080fd5b506004361061010b5760003560e01c80636352211e116100a2578063a22cb46511610071578063a22cb465146102c9578063b88d4fde146102e5578063bf819c2014610301578063c87b56dd1461031f578063e985e9c51461034f5761010b565b80636352211e1461022f57806370a082311461025f5780638c7ea24b1461028f57806395d89b41146102ab5761010b565b8063095ea7b3116100de578063095ea7b3146101aa57806323b872dd146101c65780632a55205a146101e257806342842e0e146102135761010b565b806301ffc9a71461011057806306fdde0314610140578063081812fc1461015e57806308e9bd261461018e575b600080fd5b61012a60048036038101906101259190612112565b61037f565b60405161013791906125a0565b60405180910390f35b610148610391565b60405161015591906125bb565b60405180910390f35b61017860048036038101906101739190612164565b610423565b6040516101859190612510565b60405180910390f35b6101a860048036038101906101a39190611f6b565b6104a8565b005b6101c460048036038101906101bf91906120d6565b61053f565b005b6101e060048036038101906101db9190611fd0565b610657565b005b6101fc60048036038101906101f7919061218d565b6106b7565b60405161020a929190612577565b60405180910390f35b61022d60048036038101906102289190611fd0565b610777565b005b61024960048036038101906102449190612164565b610797565b6040516102569190612510565b60405180910390f35b61027960048036038101906102749190611f6b565b610849565b604051610286919061283b565b60405180910390f35b6102a960048036038101906102a491906120d6565b610901565b005b6102b361090f565b6040516102c091906125bb565b60405180910390f35b6102e360048036038101906102de919061209a565b6109a1565b005b6102ff60048036038101906102fa919061201f565b6109b7565b005b610309610a19565b60405161031691906125bb565b60405180910390f35b61033960048036038101906103349190612164565b610aab565b60405161034691906125bb565b60405180910390f35b61036960048036038101906103649190611f94565b610bfd565b60405161037691906125a0565b60405180910390f35b600061038a82610d2a565b9050919050565b6060600080546103a090612aba565b80601f01602080910402602001604051908101604052809291908181526020018280546103cc90612aba565b80156104195780601f106103ee57610100808354040283529160200191610419565b820191906000526020600020905b8154815290600101906020018083116103fc57829003601f168201915b5050505050905090565b600061042e82610da4565b61046d576040517f08c379a0000000000000000000000000000000000000000000000000000000008152600401610464906127bb565b60405180910390fd5b6004600083815260200190815260200160002060009054906101000a900473ffffffffffffffffffffffffffffffffffffffff169050919050565b60006104b46008610e10565b905060006040518060400160405280601d81526020017f68747470733a2f2f6a736f6e6b65657065722e636f6d2f622f5255555300000081525090506104fa8383610e1e565b6105048282610e3c565b61050e6008610eb0565b61051781610c91565b61053a604051806060016040528060258152602001613168602591398333610ec6565b505050565b600061054a82610797565b90508073ffffffffffffffffffffffffffffffffffffffff168373ffffffffffffffffffffffffffffffffffffffff1614156105bb576040517f08c379a00000000000000000000000000000000000000000000000000000000081526004016105b2906127fb565b60405180910390fd5b8073ffffffffffffffffffffffffffffffffffffffff166105da610f65565b73ffffffffffffffffffffffffffffffffffffffff161480610609575061060881610603610f65565b610bfd565b5b610648576040517f08c379a000000000000000000000000000000000000000000000000000000000815260040161063f906126fb565b60405180910390fd5b6106528383610f6d565b505050565b610668610662610f65565b82611026565b6106a7576040517f08c379a000000000000000000000000000000000000000000000000000000000815260040161069e9061281b565b60405180910390fd5b6106b2838383611104565b505050565b600080600060076040518060400160405290816000820160009054906101000a900473ffffffffffffffffffffffffffffffffffffffff1673ffffffffffffffffffffffffffffffffffffffff1673ffffffffffffffffffffffffffffffffffffffff1681526020016000820160149054906101000a900462ffffff1662ffffff1662ffffff1681525050905080600001519250612710816020015162ffffff16856107639190612976565b61076d9190612945565b9150509250929050565b610792838383604051806020016040528060008152506109b7565b505050565b6000806002600084815260200190815260200160002060009054906101000a900473ffffffffffffffffffffffffffffffffffffffff169050600073ffffffffffffffffffffffffffffffffffffffff168173ffffffffffffffffffffffffffffffffffffffff161415610840576040517f08c379a00000000000000000000000000000000000000000000000000000000081526004016108379061273b565b60405180910390fd5b80915050919050565b60008073ffffffffffffffffffffffffffffffffffffffff168273ffffffffffffffffffffffffffffffffffffffff1614156108ba576040517f08c379a00000000000000000000000000000000000000000000000000000000081526004016108b19061271b565b60405180910390fd5b600360008373ffffffffffffffffffffffffffffffffffffffff1673ffffffffffffffffffffffffffffffffffffffff168152602001908152602001600020549050919050565b61090b828261136b565b5050565b60606001805461091e90612aba565b80601f016020809104026020016040519081016040528092919081815260200182805461094a90612aba565b80156109975780601f1061096c57610100808354040283529160200191610997565b820191906000526020600020905b81548152906001019060200180831161097a57829003601f168201915b5050505050905090565b6109b36109ac610f65565b8383611455565b5050565b6109c86109c2610f65565b83611026565b610a07576040517f08c379a00000000000000000000000000000000000000000000000000000000081526004016109fe9061281b565b60405180910390fd5b610a13848484846115c2565b50505050565b606060098054610a2890612aba565b80601f0160208091040260200160405190810160405280929190818152602001828054610a5490612aba565b8015610aa15780601f10610a7657610100808354040283529160200191610aa1565b820191906000526020600020905b815481529060010190602001808311610a8457829003601f168201915b5050505050905090565b6060610ab682610da4565b610af5576040517f08c379a0000000000000000000000000000000000000000000000000000000008152600401610aec9061279b565b60405180910390fd5b6000600660008481526020019081526020016000208054610b1590612aba565b80601f0160208091040260200160405190810160405280929190818152602001828054610b4190612aba565b8015610b8e5780601f10610b6357610100808354040283529160200191610b8e565b820191906000526020600020905b815481529060010190602001808311610b7157829003601f168201915b505050505090506000610b9f61161e565b9050600081511415610bb5578192505050610bf8565b600082511115610bea578082604051602001610bd29291906124ec565b60405160208183030381529060405292505050610bf8565b610bf384611635565b925050505b919050565b6000600560008473ffffffffffffffffffffffffffffffffffffffff1673ffffffffffffffffffffffffffffffffffffffff16815260200190815260200160002060008373ffffffffffffffffffffffffffffffffffffffff1673ffffffffffffffffffffffffffffffffffffffff16815260200190815260200160002060009054906101000a900460ff16905092915050565b610d2781604051602401610ca591906125bb565b6040516020818303038152906040527f41304fac000000000000000000000000000000000000000000000000000000007bffffffffffffffffffffffffffffffffffffffffffffffffffffffff19166020820180517bffffffffffffffffffffffffffffffffffffffffffffffffffffffff83818316178352505050506116dc565b50565b60007f2a55205a000000000000000000000000000000000000000000000000000000007bffffffffffffffffffffffffffffffffffffffffffffffffffffffff1916827bffffffffffffffffffffffffffffffffffffffffffffffffffffffff19161480610d9d5750610d9c82611705565b5b9050919050565b60008073ffffffffffffffffffffffffffffffffffffffff166002600084815260200190815260200160002060009054906101000a900473ffffffffffffffffffffffffffffffffffffffff1673ffffffffffffffffffffffffffffffffffffffff1614159050919050565b600081600001549050919050565b610e388282604051806020016040528060008152506117e7565b5050565b610e4582610da4565b610e84576040517f08c379a0000000000000000000000000000000000000000000000000000000008152600401610e7b9061275b565b60405180910390fd5b80600660008481526020019081526020016000209080519060200190610eab929190611df7565b505050565b6001816000016000828254019250508190555050565b610f60838383604051602401610ede939291906125dd565b6040516020818303038152906040527fe3849f79000000000000000000000000000000000000000000000000000000007bffffffffffffffffffffffffffffffffffffffffffffffffffffffff19166020820180517bffffffffffffffffffffffffffffffffffffffffffffffffffffffff83818316178352505050506116dc565b505050565b600033905090565b816004600083815260200190815260200160002060006101000a81548173ffffffffffffffffffffffffffffffffffffffff021916908373ffffffffffffffffffffffffffffffffffffffff160217905550808273ffffffffffffffffffffffffffffffffffffffff16610fe083610797565b73ffffffffffffffffffffffffffffffffffffffff167f8c5be1e5ebec7d5bd14f71427d1e84f3dd0314c0f7b2291e5b200ac8c7c3b92560405160405180910390a45050565b600061103182610da4565b611070576040517f08c379a0000000000000000000000000000000000000000000000000000000008152600401611067906126db565b60405180910390fd5b600061107b83610797565b90508073ffffffffffffffffffffffffffffffffffffffff168473ffffffffffffffffffffffffffffffffffffffff1614806110ea57508373ffffffffffffffffffffffffffffffffffffffff166110d284610423565b73ffffffffffffffffffffffffffffffffffffffff16145b806110fb57506110fa8185610bfd565b5b91505092915050565b8273ffffffffffffffffffffffffffffffffffffffff1661112482610797565b73ffffffffffffffffffffffffffffffffffffffff161461117a576040517f08c379a00000000000000000000000000000000000000000000000000000000081526004016111719061265b565b60405180910390fd5b600073ffffffffffffffffffffffffffffffffffffffff168273ffffffffffffffffffffffffffffffffffffffff1614156111ea576040517f08c379a00000000000000000000000000000000000000000000000000000000081526004016111e19061269b565b60405180910390fd5b6111f5838383611842565b611200600082610f6d565b6001600360008573ffffffffffffffffffffffffffffffffffffffff1673ffffffffffffffffffffffffffffffffffffffff168152602001908152602001600020600082825461125091906129d0565b925050819055506001600360008473ffffffffffffffffffffffffffffffffffffffff1673ffffffffffffffffffffffffffffffffffffffff16815260200190815260200160002060008282546112a791906128ef565b92505081905550816002600083815260200190815260200160002060006101000a81548173ffffffffffffffffffffffffffffffffffffffff021916908373ffffffffffffffffffffffffffffffffffffffff160217905550808273ffffffffffffffffffffffffffffffffffffffff168473ffffffffffffffffffffffffffffffffffffffff167fddf252ad1be2c89b69c2b068fc378daa952ba7f163c4a11628f55a4df523b3ef60405160405180910390a4611366838383611847565b505050565b6127108111156113b0576040517f08c379a00000000000000000000000000000000000000000000000000000000081526004016113a79061261b565b60405180910390fd5b60405180604001604052808373ffffffffffffffffffffffffffffffffffffffff1681526020018262ffffff16815250600760008201518160000160006101000a81548173ffffffffffffffffffffffffffffffffffffffff021916908373ffffffffffffffffffffffffffffffffffffffff16021790555060208201518160000160146101000a81548162ffffff021916908362ffffff1602179055509050505050565b8173ffffffffffffffffffffffffffffffffffffffff168373ffffffffffffffffffffffffffffffffffffffff1614156114c4576040517f08c379a00000000000000000000000000000000000000000000000000000000081526004016114bb906126bb565b60405180910390fd5b80600560008573ffffffffffffffffffffffffffffffffffffffff1673ffffffffffffffffffffffffffffffffffffffff16815260200190815260200160002060008473ffffffffffffffffffffffffffffffffffffffff1673ffffffffffffffffffffffffffffffffffffffff16815260200190815260200160002060006101000a81548160ff0219169083151502179055508173ffffffffffffffffffffffffffffffffffffffff168373ffffffffffffffffffffffffffffffffffffffff167f17307eab39ab6107e8899845ad3d59bd9653f200f220920489ca2b5937696c31836040516115b591906125a0565b60405180910390a3505050565b6115cd848484611104565b6115d98484848461184c565b611618576040517f08c379a000000000000000000000000000000000000000000000000000000000815260040161160f9061263b565b60405180910390fd5b50505050565b606060405180602001604052806000815250905090565b606061164082610da4565b61167f576040517f08c379a0000000000000000000000000000000000000000000000000000000008152600401611676906127db565b60405180910390fd5b600061168961161e565b905060008151116116a957604051806020016040528060008152506116d4565b806116b3846119e3565b6040516020016116c49291906124ec565b6040516020818303038152906040525b915050919050565b60008151905060006a636f6e736f6c652e6c6f679050602083016000808483855afa5050505050565b60007f80ac58cd000000000000000000000000000000000000000000000000000000007bffffffffffffffffffffffffffffffffffffffffffffffffffffffff1916827bffffffffffffffffffffffffffffffffffffffffffffffffffffffff191614806117d057507f5b5e139f000000000000000000000000000000000000000000000000000000007bffffffffffffffffffffffffffffffffffffffffffffffffffffffff1916827bffffffffffffffffffffffffffffffffffffffffffffffffffffffff1916145b806117e057506117df82611b90565b5b9050919050565b6117f18383611bfa565b6117fe600084848461184c565b61183d576040517f08c379a00000000000000000000000000000000000000000000000000000000081526004016118349061263b565b60405180910390fd5b505050565b505050565b505050565b600061186d8473ffffffffffffffffffffffffffffffffffffffff16611dd4565b156119d6578373ffffffffffffffffffffffffffffffffffffffff1663150b7a02611896610f65565b8786866040518563ffffffff1660e01b81526004016118b8949392919061252b565b602060405180830381600087803b1580156118d257600080fd5b505af192505050801561190357506040513d601f19601f82011682018060405250810190611900919061213b565b60015b611986573d8060008114611933576040519150601f19603f3d011682016040523d82523d6000602084013e611938565b606091505b5060008151141561197e576040517f08c379a00000000000000000000000000000000000000000000000000000000081526004016119759061263b565b60405180910390fd5b805181602001fd5b63150b7a0260e01b7bffffffffffffffffffffffffffffffffffffffffffffffffffffffff1916817bffffffffffffffffffffffffffffffffffffffffffffffffffffffff1916149150506119db565b600190505b949350505050565b60606000821415611a2b576040518060400160405280600181526020017f30000000000000000000000000000000000000000000000000000000000000008152509050611b8b565b600082905060005b60008214611a5d578080611a4690612b1d565b915050600a82611a569190612945565b9150611a33565b60008167ffffffffffffffff811115611a9f577f4e487b7100000000000000000000000000000000000000000000000000000000600052604160045260246000fd5b6040519080825280601f01601f191660200182016040528015611ad15781602001600182028036833780820191505090505b5090505b60008514611b8457600182611aea91906129d0565b9150600a85611af99190612b66565b6030611b0591906128ef565b60f81b818381518110611b41577f4e487b7100000000000000000000000000000000000000000000000000000000600052603260045260246000fd5b60200101907effffffffffffffffffffffffffffffffffffffffffffffffffffffffffffff1916908160001a905350600a85611b7d9190612945565b9450611ad5565b8093505050505b919050565b60007f01ffc9a7000000000000000000000000000000000000000000000000000000007bffffffffffffffffffffffffffffffffffffffffffffffffffffffff1916827bffffffffffffffffffffffffffffffffffffffffffffffffffffffff1916149050919050565b600073ffffffffffffffffffffffffffffffffffffffff168273ffffffffffffffffffffffffffffffffffffffff161415611c6a576040517f08c379a0000000000000000000000000000000000000000000000000000000008152600401611c619061277b565b60405180910390fd5b611c7381610da4565b15611cb3576040517f08c379a0000000000000000000000000000000000000000000000000000000008152600401611caa9061267b565b60405180910390fd5b611cbf60008383611842565b6001600360008473ffffffffffffffffffffffffffffffffffffffff1673ffffffffffffffffffffffffffffffffffffffff1681526020019081526020016000206000828254611d0f91906128ef565b92505081905550816002600083815260200190815260200160002060006101000a81548173ffffffffffffffffffffffffffffffffffffffff021916908373ffffffffffffffffffffffffffffffffffffffff160217905550808273ffffffffffffffffffffffffffffffffffffffff16600073ffffffffffffffffffffffffffffffffffffffff167fddf252ad1be2c89b69c2b068fc378daa952ba7f163c4a11628f55a4df523b3ef60405160405180910390a4611dd060008383611847565b5050565b6000808273ffffffffffffffffffffffffffffffffffffffff163b119050919050565b828054611e0390612aba565b90600052602060002090601f016020900481019282611e255760008555611e6c565b82601f10611e3e57805160ff1916838001178555611e6c565b82800160010185558215611e6c579182015b82811115611e6b578251825591602001919060010190611e50565b5b509050611e799190611e7d565b5090565b5b80821115611e96576000816000905550600101611e7e565b5090565b6000611ead611ea88461287b565b612856565b905082815260208101848484011115611ec557600080fd5b611ed0848285612a78565b509392505050565b600081359050611ee78161310b565b92915050565b600081359050611efc81613122565b92915050565b600081359050611f1181613139565b92915050565b600081519050611f2681613139565b92915050565b600082601f830112611f3d57600080fd5b8135611f4d848260208601611e9a565b91505092915050565b600081359050611f6581613150565b92915050565b600060208284031215611f7d57600080fd5b6000611f8b84828501611ed8565b91505092915050565b60008060408385031215611fa757600080fd5b6000611fb585828601611ed8565b9250506020611fc685828601611ed8565b9150509250929050565b600080600060608486031215611fe557600080fd5b6000611ff386828701611ed8565b935050602061200486828701611ed8565b925050604061201586828701611f56565b9150509250925092565b6000806000806080858703121561203557600080fd5b600061204387828801611ed8565b945050602061205487828801611ed8565b935050604061206587828801611f56565b925050606085013567ffffffffffffffff81111561208257600080fd5b61208e87828801611f2c565b91505092959194509250565b600080604083850312156120ad57600080fd5b60006120bb85828601611ed8565b92505060206120cc85828601611eed565b9150509250929050565b600080604083850312156120e957600080fd5b60006120f785828601611ed8565b925050602061210885828601611f56565b9150509250929050565b60006020828403121561212457600080fd5b600061213284828501611f02565b91505092915050565b60006020828403121561214d57600080fd5b600061215b84828501611f17565b91505092915050565b60006020828403121561217657600080fd5b600061218484828501611f56565b91505092915050565b600080604083850312156121a057600080fd5b60006121ae85828601611f56565b92505060206121bf85828601611f56565b9150509250929050565b6121d281612a04565b82525050565b6121e181612a16565b82525050565b60006121f2826128ac565b6121fc81856128c2565b935061220c818560208601612a87565b61221581612c53565b840191505092915050565b600061222b826128b7565b61223581856128d3565b9350612245818560208601612a87565b61224e81612c53565b840191505092915050565b6000612264826128b7565b61226e81856128e4565b935061227e818560208601612a87565b80840191505092915050565b6000612297601a836128d3565b91506122a282612c64565b602082019050919050565b60006122ba6032836128d3565b91506122c582612c8d565b604082019050919050565b60006122dd6025836128d3565b91506122e882612cdc565b604082019050919050565b6000612300601c836128d3565b915061230b82612d2b565b602082019050919050565b60006123236024836128d3565b915061232e82612d54565b604082019050919050565b60006123466019836128d3565b915061235182612da3565b602082019050919050565b6000612369602c836128d3565b915061237482612dcc565b604082019050919050565b600061238c6038836128d3565b915061239782612e1b565b604082019050919050565b60006123af602a836128d3565b91506123ba82612e6a565b604082019050919050565b60006123d26029836128d3565b91506123dd82612eb9565b604082019050919050565b60006123f5602e836128d3565b915061240082612f08565b604082019050919050565b60006124186020836128d3565b915061242382612f57565b602082019050919050565b600061243b6031836128d3565b915061244682612f80565b604082019050919050565b600061245e602c836128d3565b915061246982612fcf565b604082019050919050565b6000612481602f836128d3565b915061248c8261301e565b604082019050919050565b60006124a46021836128d3565b91506124af8261306d565b604082019050919050565b60006124c76031836128d3565b91506124d2826130bc565b604082019050919050565b6124e681612a6e565b82525050565b60006124f88285612259565b91506125048284612259565b91508190509392505050565b600060208201905061252560008301846121c9565b92915050565b600060808201905061254060008301876121c9565b61254d60208301866121c9565b61255a60408301856124dd565b818103606083015261256c81846121e7565b905095945050505050565b600060408201905061258c60008301856121c9565b61259960208301846124dd565b9392505050565b60006020820190506125b560008301846121d8565b92915050565b600060208201905081810360008301526125d58184612220565b905092915050565b600060608201905081810360008301526125f78186612220565b905061260660208301856124dd565b61261360408301846121c9565b949350505050565b600060208201905081810360008301526126348161228a565b9050919050565b60006020820190508181036000830152612654816122ad565b9050919050565b60006020820190508181036000830152612674816122d0565b9050919050565b60006020820190508181036000830152612694816122f3565b9050919050565b600060208201905081810360008301526126b481612316565b9050919050565b600060208201905081810360008301526126d481612339565b9050919050565b600060208201905081810360008301526126f48161235c565b9050919050565b600060208201905081810360008301526127148161237f565b9050919050565b60006020820190508181036000830152612734816123a2565b9050919050565b60006020820190508181036000830152612754816123c5565b9050919050565b60006020820190508181036000830152612774816123e8565b9050919050565b600060208201905081810360008301526127948161240b565b9050919050565b600060208201905081810360008301526127b48161242e565b9050919050565b600060208201905081810360008301526127d481612451565b9050919050565b600060208201905081810360008301526127f481612474565b9050919050565b6000602082019050818103600083015261281481612497565b9050919050565b60006020820190508181036000830152612834816124ba565b9050919050565b600060208201905061285060008301846124dd565b92915050565b6000612860612871565b905061286c8282612aec565b919050565b6000604051905090565b600067ffffffffffffffff82111561289657612895612c24565b5b61289f82612c53565b9050602081019050919050565b600081519050919050565b600081519050919050565b600082825260208201905092915050565b600082825260208201905092915050565b600081905092915050565b60006128fa82612a6e565b915061290583612a6e565b9250827fffffffffffffffffffffffffffffffffffffffffffffffffffffffffffffffff0382111561293a57612939612b97565b5b828201905092915050565b600061295082612a6e565b915061295b83612a6e565b92508261296b5761296a612bc6565b5b828204905092915050565b600061298182612a6e565b915061298c83612a6e565b9250817fffffffffffffffffffffffffffffffffffffffffffffffffffffffffffffffff04831182151516156129c5576129c4612b97565b5b828202905092915050565b60006129db82612a6e565b91506129e683612a6e565b9250828210156129f9576129f8612b97565b5b828203905092915050565b6000612a0f82612a4e565b9050919050565b60008115159050919050565b60007fffffffff0000000000000000000000000000000000000000000000000000000082169050919050565b600073ffffffffffffffffffffffffffffffffffffffff82169050919050565b6000819050919050565b82818337600083830152505050565b60005b83811015612aa5578082015181840152602081019050612a8a565b83811115612ab4576000848401525b50505050565b60006002820490506001821680612ad257607f821691505b60208210811415612ae657612ae5612bf5565b5b50919050565b612af582612c53565b810181811067ffffffffffffffff82111715612b1457612b13612c24565b5b80604052505050565b6000612b2882612a6e565b91507fffffffffffffffffffffffffffffffffffffffffffffffffffffffffffffffff821415612b5b57612b5a612b97565b5b600182019050919050565b6000612b7182612a6e565b9150612b7c83612a6e565b925082612b8c57612b8b612bc6565b5b828206905092915050565b7f4e487b7100000000000000000000000000000000000000000000000000000000600052601160045260246000fd5b7f4e487b7100000000000000000000000000000000000000000000000000000000600052601260045260246000fd5b7f4e487b7100000000000000000000000000000000000000000000000000000000600052602260045260246000fd5b7f4e487b7100000000000000000000000000000000000000000000000000000000600052604160045260246000fd5b6000601f19601f8301169050919050565b7f45524332393831526f79616c746965733a20546f6f2068696768000000000000600082015250565b7f4552433732313a207472616e7366657220746f206e6f6e20455243373231526560008201527f63656976657220696d706c656d656e7465720000000000000000000000000000602082015250565b7f4552433732313a207472616e736665722066726f6d20696e636f72726563742060008201527f6f776e6572000000000000000000000000000000000000000000000000000000602082015250565b7f4552433732313a20746f6b656e20616c7265616479206d696e74656400000000600082015250565b7f4552433732313a207472616e7366657220746f20746865207a65726f2061646460008201527f7265737300000000000000000000000000000000000000000000000000000000602082015250565b7f4552433732313a20617070726f766520746f2063616c6c657200000000000000600082015250565b7f4552433732313a206f70657261746f7220717565727920666f72206e6f6e657860008201527f697374656e7420746f6b656e0000000000000000000000000000000000000000602082015250565b7f4552433732313a20617070726f76652063616c6c6572206973206e6f74206f7760008201527f6e6572206e6f7220617070726f76656420666f7220616c6c0000000000000000602082015250565b7f4552433732313a2062616c616e636520717565727920666f7220746865207a6560008201527f726f206164647265737300000000000000000000000000000000000000000000602082015250565b7f4552433732313a206f776e657220717565727920666f72206e6f6e657869737460008201527f656e7420746f6b656e0000000000000000000000000000000000000000000000602082015250565b7f45524337323155524953746f726167653a2055524920736574206f66206e6f6e60008201527f6578697374656e7420746f6b656e000000000000000000000000000000000000602082015250565b7f4552433732313a206d696e7420746f20746865207a65726f2061646472657373600082015250565b7f45524337323155524953746f726167653a2055524920717565727920666f722060008201527f6e6f6e6578697374656e7420746f6b656e000000000000000000000000000000602082015250565b7f4552433732313a20617070726f76656420717565727920666f72206e6f6e657860008201527f697374656e7420746f6b656e0000000000000000000000000000000000000000602082015250565b7f4552433732314d657461646174613a2055524920717565727920666f72206e6f60008201527f6e6578697374656e7420746f6b656e0000000000000000000000000000000000602082015250565b7f4552433732313a20617070726f76616c20746f2063757272656e74206f776e6560008201527f7200000000000000000000000000000000000000000000000000000000000000602082015250565b7f4552433732313a207472616e736665722063616c6c6572206973206e6f74206f60008201527f776e6572206e6f7220617070726f766564000000000000000000000000000000602082015250565b61311481612a04565b811461311f57600080fd5b50565b61312b81612a16565b811461313657600080fd5b50565b61314281612a22565b811461314d57600080fd5b50565b61315981612a6e565b811461316457600080fd5b5056fe416e204e465420772f20494420257320686173206265656e206d696e74656420746f202573a2646970667358221220e2addf787b9448455281b3058c628098a360350a9b9acc21d7b8dcc5eb40e4ad64736f6c63430008040033",
    "linkReferences": {},
    "deployedLinkReferences": {}
}